S01000004C6162312E7265762E7372656359
S11300000C942A000C9434000C9434000C943400A6
S11300100C9434000C9434000C9434000C9434008C
S11300200C9434000C9434000C9434000C9434007C
S11300300C9434000C9434000C9434000C9434006C
S11300400C9434000C9434000C9434000C9434005C
S11300500C94340011241FBECFE5D8E0DEBFCDBF21
S11300600E9447000C9458000C9400009C0183E00B
S113007083BF83E807C082BF98B7916098BF08B672
S113008000FEFDCF21503109B0F713BE0895B89A90
S1130090B998B19B02C0C098FCCFC09A84EF91E09C
S11300A00E943600C09884EF91E00E943600F1CFA0
S10700B0F894FFCFEE
S9030000FC
